:1000000019C033C032C031C030C02FC02EC02DC087
:100010002CC02BC02AC029C028C027C0BAC425C004
:1000200024C023C093C321C020C01FC01EC050C421
:100030001CC01BC011241FBECFEFD4E0DEBFCDBF5C
:1000400012E0A0E0B1E0E6E0FCE002C005900D9215
:10005000A030B107D9F712E0A0E0B2E001C01D92D4
:10006000AD36B107E1F74BD1CCC5CACFE1E6F0E040
:1000700080E8808310828FE387B984E384B982E0CB
:100080008AB9599A84BD15BC80936E0080E4809330
:100090007B0085E480937C008BE080BF0895E1E6DF
:1000A000F0E080E88083108208958FE387B984E3CD
:1000B00084B982E08AB9599A089582E084BD15BC5A
:1000C00080936E000895E0E6F0E088E1808382E4AA
:1000D0008083089580E480937B0085E480937C0096
:1000E0008BE080BF0895F999FECF1FBA81BD60BD36
:1000F000FA9AF99A0895F999FECF1FBA81BDF89A34
:1001000080B5089583B190E08870907023E0959554
:1001100087952A95E1F70895E0E6F0E088E180838D
:1001200082E080830895E0E6F0E088E1808382E465
:10013000808308958FE187B981E188B98BE080BF22
:1001400010920C02089583E080BF8FE387B980E2AC
:1001500088B90895F8948FE790E09093C500809354
:10016000C40080E98093C10086E08093C200789447
:1001700008958091C00087FFFCCF8091C60008954C
:1001800020E030E040E050E002C02F5F3F4FF90137
:10019000E35FFD4F80818C32C1F7FA01E15AFD4FD8
:1001A00020834F5F5F4F4E30510579F780915F029A
:1001B00021E030E0482F50E007C0E35FFD4F808131
:1001C000F901E157FE4F8083F901E40FF51F80919B
:1001D00060022F5F3F4F90E0E817F90774F38091BA
:1001E000600221E030E0482F50E007C0E35FFD4FA0
:1001F0008081F901EA56FE4F8083F901E40FF51F73
:10020000809161022F5F3F4F90E0E817F90774F388
:100210008091610221E030E0482F50E007C0E35FA9
:10022000FD4F8081F901E356FE4F8083F901E40F11
:10023000F51F809162022F5F3F4F90E0E817F907AA
:1002400074F30895E4E8F1E0E80FF11D808190E097
:1002500002C0959587956A95E2F78170089520917F
:10026000D1013091D2018091D1019091D201969526
:1002700087959093D2018093D101E0910302409140
:100280000402F0E0EC57FE4F8081217090E002C044
:10029000959587954A95E2F78170281761F08091CE
:1002A000D1019091D20128E034E8822793279093DE
:1002B000D2018093D10108951092C1002A9A88E852
:1002C00093E125EF30E0F9013197F1F70197D9F784
:1002D0008FEF9FEF9093D2018093D10180918401A1
:1002E00081708093020281E08093040283E080BFEA
:1002F0008FE387B980E288B982E085BD0895B6DED4
:1003000078948EE187BDF8948FE790E09093C500D4
:100310008093C40080E98093C10086E08093C2008E
:10032000789480E29EE425EF30E0F9013197F1F70F
:100330000197D9F783B190E08870907043E095956C
:1003400087954A95E1F7882309F4B6DF8FE187B9ED
:1003500081E188B98BE080BF10920C028091FE0190
:10036000882329F02C9A8091FE018823E1F72C98AC
:10037000F5CF25E230E0F901EF54FE4F8081F9011D
:10038000EC57FE4F80832F5F3F4F2D32310599F799
:100390008091FB018093B1012FE230E0F901E0553B
:1003A000FE4F8081F901EC57FE4F80832F5F3F4F56
:1003B0002833310599F78091FC018093BC012AE331
:1003C00030E0F901E155FE4F8081F901EC57FE4F15
:1003D00080832F5F3F4F2034310599F780910A02C7
:1003E000882311F086E501C089E48093C4018091DF
:1003F000D5018E31C1F483B190E08870907053E0E4
:10040000959587955A95E1F7882351F08091FE01E3
:10041000882321F080910A02882311F48EE106C01E
:100420004BDF81E003C08091D5018F5F8093D501C0
:10043000089520E030E040E050E002C02F5F3F4FE1
:10044000F901E35FFD4F80818C32C1F7FA01E15A77
:10045000FD4F20834F5F5F4F4E30510579F7E0919C
:100460006402F0E0E25FFD4F8081803309F477C0E1
:100470008091600240E050E0282F30E02F5F3F4F36
:100480000DC0E0916002F0E0E095F095EA0FFB1FEF
:10049000A35FBD4F8C91EA52FE4F8083D901A40F18
:1004A000B51F809161024F5F5F4F90E0A817B907B9
:1004B00044F3E0916102F0E0E25FFD4F80818093C0
:1004C000FB018091620240E050E0282F30E02F5F76
:1004D0003F4F0DC0E0916202F0E0E095F095EA0F29
:1004E000FB1FA35FBD4F8C91E152FE4F8083D9016A
:1004F000A40FB51F809163024F5F5F4F90E0A81774
:10050000B90744F3E0916302F0E0E25FFD4F8081C0
:100510008093FC0180915F0240E050E0282F30E0A2
:100520002F5F3F4F0DC0E0915F02F0E0E095F09546
:10053000EA0FFB1FA35FBD4F8C91E751FE4F8083F5
:10054000D901A40FB51F809160024F5F5F4F90E00B
:10055000A817B90744F381E080930A0223C0809171
:100560005F0240E050E0282F30E02F5F3F4F0DC08A
:10057000E0915F02F0E0E095F095EA0FFB1FA35FCA
:10058000BD4F8C91E751FE4F8083D901A40FB51F59
:10059000809160024F5F5F4F90E0A817B90744F366
:1005A00010920A02E6DE80910B028F5F80930B02AD
:1005B00080910B02843030F081E08093FE0184E072
:1005C00080930B02089515BC80E288B91092030253
:1005D00010920502109201021092000288E893E145
:1005E00025EF30E0F9013197F1F70197D9F72A9813
:1005F00080E98093C1008FE187B981E188B98BE000
:1006000080BF10920C0288E893E125EF30E0F901F9
:100610003197F1F70197D9F720E030E09EED109285
:10062000010211C0E0910102FF27E7FDF095E050C3
:10063000FF4F808188B9892F8A95F1F78091010257
:100640008F5F809301028091010281325CF32F5F02
:100650003F4F2D32310519F784EF91E025EF30E05F
:10066000F9013197F1F70197D9F780910A028823B0
:1006700009F44AC020E030E09EED1092010211C062
:10068000E0910102FF27E7FDF095E050FF4F8081E8
:1006900088B9892F8A95F1F7809101028F5F809345
:1006A00001028091010281325CF32F5F3F4F2D32B6
:1006B000310519F784EF91E025EF30E0F90131972A
:1006C000F1F70197D9F720E030E09EED109201029A
:1006D00011C0E0910102FF27E7FDF095E050FF4FC8
:1006E000808188B9892F8A95F1F7809101028F5F07
:1006F000809301028091010281325CF32F5F3F4FB2
:100700002D32310519F7089520E030E040E551E041
:100710001092010211C0E0910102FF27E7FDF09560
:10072000E050FF4F808188B9CA010197F1F78091AD
:1007300001028F5F809301028091010281325CF39C
:100740002F5F3F4F2D32310519F708951F920F92F9
:100750000FB60F9211242F933F934F935F936F9394
:100760007F938F939F93AF93BF93EF93FF9383E018
:1007700080BF8FE387B980E288B98091C00087FF8E
:10078000FCCF8091C60080930702809107028432DB
:1007900041F4109209021092D40181E08093080282
:1007A00012C0809107028D3071F481E08093D401F2
:1007B00080911102873411F43CDE05C08091110252
:1007C000803309F4DDDC8091D401813069F0E0915F
:1007D0000902F0E080910702E35FFD4F8083809182
:1007E00009028F5F809309028FE187B981E188B99F
:1007F0008BE080BF10920C02FF91EF91BF91AF91FF
:100800009F918F917F916F915F914F913F912F9128
:100810000F900FBE0F901F9018952CE230E0829F32
:10082000A001839F500D929F500D11244F5F5F4F89
:1008300020E030E09EED1AC01092010211C0E0915C
:100840000102FF27E7FDF095E050FF4F808188B956
:10085000892F8A95F1F7809101028F5F80930102C1
:100860008091010281325CF32F5F3F4F24173507DF
:1008700018F3089526E130E0829FA001839F500D78
:10088000929F500D11244F5F5F4F20E030E060E5F4
:1008900071E01AC01092010211C0E0910102FF271D
:1008A000E7FDF095E050FF4F808188B9CB010197BB
:1008B000F1F7809101028F5F809301028091010224
:1008C00081325CF32F5F3F4F2417350718F30895EB
:1008D0001F920F920FB60F9211248F939F938091C6
:1008E0000C02882321F010920B021092FE0180B7B7
:1008F00090E083709070892B21F01092FD018AE0C6
:1009000007C000B601FE05C081E08093FD018BE0C9
:1009100080BF81E080930C029F918F910F900FBE5A
:100920000F901F90189580910102815080930102D1
:1009300080910202882399F490910102E0910102D2
:10094000FF27E7FDF095ED59FE4F8081890F8093D9
:100950000102809101028132B4F08EE012C09091C8
:100960000102E0910102FF27E7FDF095EE5BFE4FEB
:100970008081890F809301028091010281321CF0F5
:100980008FEF80930102809101028F5F80930102BB
:1009900008951F920F920FB60F9211242F933F9339
:1009A0004F935F936F937F938F939F93AF93BF9377
:1009B000EF93FF9380910202813041F4E0910102B4
:1009C000FF27E7FDF095E050FF4F07C0E0910102DF
:1009D000FF27E7FDF095EF5DFE4F808188B980919C
:1009E00000028F5F80930002809101028F5F8093ED
:1009F000010280910202882341F480910102813238
:100A000054F08FE08093010206C080910102813290
:100A100014F01092010280910502813029F4809136
:100A20000002813208F0CFDD80910002813208F4AB
:100A3000D7C010920002E091030220910402F0E07E
:100A4000EC57FE4F808190E002C0959587952A95DE
:100A5000E2F780FD0AC091E09093060280910202C5
:100A60008927809302025FDF28C0E0910302209172
:100A70000402F0E0EC57FE4F808190E002C09595B3
:100A800087952A95E2F7982F917080FF16C0809184
:100A900006028F5F80930602E0910302F0E0EC57BC
:100AA000FE4F80818E3739F080910602863028F023
:100AB00082E08093D301909306028091D301882332
:100AC00049F08091D301833029F08091D301815086
:100AD0008093D3018091D3018823D1F180910302C7
:100AE000883480F5809103028D3060F12091D1012E
:100AF0003091D2018091D1019091D2019695879544
:100B00009093D2018093D101E091030240910402BD
:100B1000F0E0EC57FE4F8081217090E002C0959587
:100B200087954A95E2F78170281761F08091D1018D
:100B30009091D20128E034E8822793279093D20144
:100B40008093D101809104028F5F809304021BC0C7
:100B500083E08093D301E091030220910402F0E04E
:100B6000EC57FE4F808190E002C0959587952A95BD
:100B7000E2F7982F917080FF06C0809102028927CA
:100B800080930202D0DE8091040288304CF11092F2
:100B90000402809103028F5F80930302809103021D
:100BA0008834B9F48091D1019091D20180959095CB
:100BB0009093D2018093D1018091D1019091D20183
:100BC0009093CD018091D1019091D2018093CC017D
:100BD00007C0809103028D3419F481E080930502EF
:100BE000FF91EF91BF91AF919F918F917F916F9105
:100BF0005F914F913F912F910F900FBE0F901F90DB
:060C00001895F894FFCFE7
:100C06003F3E3C3936312C26201B150F0A060301C0
:100C160000000103060A0F151B20262C3136393C2D
:100C26003E3F3D372F241A0F07010001070F1A24F4
:100C36002F373D3F3D372F241A0F07010001070FBD
:100C46001A240001020203040506070708090A0B15
:100C56000C0D0D0E0F10F0F0F1F2F3F4F5F6F6F7B9
:100C6600F8F9FA00FFFFFFFEFEFEFDFDFCFBFBFBB5
:100C7600FAFAF9F9F8F8F7F7F6F6F6F5F5F4F4F303
:100C8600F3F2F2F2000000000000000000007E7E99
:100C96007E82A0A4A64040E096946C96A6A8E2AEFA
:100CA60092888A62406303F021303030302E303033
:100CB6004E2F30303030302E3030573E30303030DE
:100CC600303049207265763054726163FFFF7E7E54
:100CD6007EFFFF030101303030302E3030303030AF
:100CE600303030302E303030303132333435362EED
:100CF6003738393030303030302E3053450101002E
:04000003000002B83F
:00000001FF
